{"contracts/Counter.sol":{"Counter":{"abi":[{"inputs":[{"internalType":"uint256","name":"num1","type":"uint256"},{"internalType":"uint256","name":"num2","type":"uint256"}],"name":"add","outputs":[],"stateMutability":"nonpayable","type":"function"},{"inputs":[{"internalType":"uint256","name":"num1","type":"uint256"},{"internalType":"uint256","name":"num2","type":"uint256"}],"name":"divide","outputs":[],"stateMutability":"nonpayable","type":"function"},{"inputs":[],"name":"getDivided","outputs":[{"internalType":"uint256","name":"","type":"uint256"}],"stateMutability":"view","type":"function"},{"inputs":[],"name":"getMultiplied","outputs":[{"internalType":"uint256","name":"","type":"uint256"}],"stateMutability":"view","type":"function"},{"inputs":[],"name":"getSubtracted","outputs":[{"internalType":"uint256","name":"","type":"uint256"}],"stateMutability":"view","type":"function"},{"inputs":[],"name":"getTotal","outputs":[{"internalType":"uint256","name":"","type":"uint256"}],"stateMutability":"view","type":"function"},{"inputs":[{"internalType":"uint256","name":"num1","type":"uint256"},{"internalType":"uint256","name":"num2","type":"uint256"}],"name":"multiply","outputs":[],"stateMutability":"nonpayable","type":"function"},{"inputs":[{"internalType":"uint256","name":"num1","type":"uint256"},{"internalType":"uint256","name":"num2","type":"uint256"}],"name":"subtract","outputs":[],"stateMutability":"nonpayable","type":"function"}],"evm":{"bytecode":{"linkReferences":{},"object":"608060405234801561001057600080fd5b50610755806100206000396000f3fe608060405234801561001057600080fd5b50600436106100885760003560e01c8063771602f71161005b578063771602f714610101578063775a25e31461011d578063d226a0491461013b578063f88e9fbf1461015957610088565b806304c051e71461008d578063165c4a16146100ab5780633ef5e445146100c757806342788af2146100e3575b600080fd5b610095610175565b6040516100a291906103df565b60405180910390f35b6100c560048036038101906100c0919061042b565b61017f565b005b6100e160048036038101906100dc919061042b565b6101e8565b005b6100eb610294565b6040516100f891906103df565b60405180910390f35b61011b6004803603810190610116919061042b565b61029e565b005b610125610307565b60405161013291906103df565b60405180910390f35b610143610310565b60405161015091906103df565b60405180910390f35b610173600480360381019061016e919061042b565b61031a565b005b6000600354905090565b81816000821180156101915750600081115b6101d0576040517f08c379a00000000000000000000000000000000000000000000000000000000081526004016101c7906104c8565b60405180910390fd5b82846101dc9190610517565b60028190555050505050565b81816000821180156101fa5750600081115b610239576040517f08c379a0000000000000000000000000000000000000000000000000000000008152600401610230906104c8565b60405180910390fd5b8284101561027c576040517f08c379a0000000000000000000000000000000000000000000000000000000008152600401610273906105cb565b60405180910390fd5b828461028891906105eb565b60018190555050505050565b6000600154905090565b81816000821180156102b05750600081115b6102ef576040517f08c379a00000000000000000000000000000000000000000000000000000000081526004016102e6906104c8565b60405180910390fd5b82846102fb919061061f565b60008190555050505050565b60008054905090565b6000600254905090565b818160008211801561032c5750600081115b61036b576040517f08c379a0000000000000000000000000000000000000000000000000000000008152600401610362906104c8565b60405180910390fd5b600083036103ae576040517f08c379a00000000000000000000000000000000000000000000000000000000081526004016103a59061069f565b60405180910390fd5b82846103ba91906106ee565b60038190555050505050565b6000819050919050565b6103d9816103c6565b82525050565b60006020820190506103f460008301846103d0565b92915050565b600080fd5b610408816103c6565b811461041357600080fd5b50565b600081359050610425816103ff565b92915050565b60008060408385031215610442576104416103fa565b5b600061045085828601610416565b925050602061046185828601610416565b9150509250929050565b600082825260208201905092915050565b7f4e756d62657273206d7573742062652067726561746572207468616e20300000600082015250565b60006104b2601e8361046b565b91506104bd8261047c565b602082019050919050565b600060208201905081810360008301526104e1816104a5565b9050919050565b7f4e487b7100000000000000000000000000000000000000000000000000000000600052601160045260246000fd5b6000610522826103c6565b915061052d836103c6565b925082820261053b816103c6565b91508282048414831517610552576105516104e8565b5b5092915050565b7f4669727374206e756d626572206d75737420626520677265617465722074686160008201527f6e206f7220657175616c20746f20746865207365636f6e64206f6e6500000000602082015250565b60006105b5603c8361046b565b91506105c082610559565b604082019050919050565b600060208201905081810360008301526105e4816105a8565b9050919050565b60006105f6826103c6565b9150610601836103c6565b9250828203905081811115610619576106186104e8565b5b92915050565b600061062a826103c6565b9150610635836103c6565b925082820190508082111561064d5761064c6104e8565b5b92915050565b7f5365636f6e64206e756d6265722063616e6e6f74206265207a65726f00000000600082015250565b6000610689601c8361046b565b915061069482610653565b602082019050919050565b600060208201905081810360008301526106b88161067c565b9050919050565b7f4e487b7100000000000000000000000000000000000000000000000000000000600052601260045260246000fd5b60006106f9826103c6565b9150610704836103c6565b925082610714576107136106bf565b5b82820490509291505056fea264697066735822122094e1f5d1d9269c01785f03919b3bdea4774ff3989893b665eb9e286150c4625764736f6c63430008120033","opcodes":"PUSH1 0x80 PUSH1 0x40 MSTORE CALLVALUE DUP1 ISZERO PUSH2 0x10 JUMPI PUSH1 0x0 DUP1 REVERT JUMPDEST POP PUSH2 0x755 DUP1 PUSH2 0x20 PUSH1 0x0 CODECOPY PUSH1 0x0 RETURN INVALID PUSH1 0x80 PUSH1 0x40 MSTORE CALLVALUE DUP1 ISZERO PUSH2 0x10 JUMPI PUSH1 0x0 DUP1 REVERT JUMPDEST POP PUSH1 0x4 CALLDATASIZE LT PUSH2 0x88 JUMPI PUSH1 0x0 CALLDATALOAD PUSH1 0xE0 SHR DUP1 PUSH4 0x771602F7 GT PUSH2 0x5B JUMPI DUP1 PUSH4 0x771602F7 EQ PUSH2 0x101 JUMPI DUP1 PUSH4 0x775A25E3 EQ PUSH2 0x11D JUMPI DUP1 PUSH4 0xD226A049 EQ PUSH2 0x13B JUMPI DUP1 PUSH4 0xF88E9FBF EQ PUSH2 0x159 JUMPI PUSH2 0x88 JUMP JUMPDEST DUP1 PUSH4 0x4C051E7 EQ PUSH2 0x8D JUMPI DUP1 PUSH4 0x165C4A16 EQ PUSH2 0xAB JUMPI DUP1 PUSH4 0x3EF5E445 EQ PUSH2 0xC7 JUMPI DUP1 PUSH4 0x42788AF2 EQ PUSH2 0xE3 JUMPI JUMPDEST PUSH1 0x0 DUP1 REVERT JUMPDEST PUSH2 0x95 PUSH2 0x175 JUMP JUMPDEST PUSH1 0x40 MLOAD PUSH2 0xA2 SWAP2 SWAP1 PUSH2 0x3DF JUMP JUMPDEST PUSH1 0x40 MLOAD DUP1 SWAP2 SUB SWAP1 RETURN JUMPDEST PUSH2 0xC5 PUSH1 0x4 DUP1 CALLDATASIZE SUB DUP2 ADD SWAP1 PUSH2 0xC0 SWAP2 SWAP1 PUSH2 0x42B JUMP JUMPDEST PUSH2 0x17F JUMP JUMPDEST STOP JUMPDEST PUSH2 0xE1 PUSH1 0x4 DUP1 CALLDATASIZE SUB DUP2 ADD SWAP1 PUSH2 0xDC SWAP2 SWAP1 PUSH2 0x42B JUMP JUMPDEST PUSH2 0x1E8 JUMP JUMPDEST STOP JUMPDEST PUSH2 0xEB PUSH2 0x294 JUMP JUMPDEST PUSH1 0x40 MLOAD PUSH2 0xF8 SWAP2 SWAP1 PUSH2 0x3DF JUMP JUMPDEST PUSH1 0x40 MLOAD DUP1 SWAP2 SUB SWAP1 RETURN JUMPDEST PUSH2 0x11B PUSH1 0x4 DUP1 CALLDATASIZE SUB DUP2 ADD SWAP1 PUSH2 0x116 SWAP2 SWAP1 PUSH2 0x42B JUMP JUMPDEST PUSH2 0x29E JUMP JUMPDEST STOP JUMPDEST PUSH2 0x125 PUSH2 0x307 JUMP JUMPDEST PUSH1 0x40 MLOAD PUSH2 0x132 SWAP2 SWAP1 PUSH2 0x3DF JUMP JUMPDEST PUSH1 0x40 MLOAD DUP1 SWAP2 SUB SWAP1 RETURN JUMPDEST PUSH2 0x143 PUSH2 0x310 JUMP JUMPDEST PUSH1 0x40 MLOAD PUSH2 0x150 SWAP2 SWAP1 PUSH2 0x3DF JUMP JUMPDEST PUSH1 0x40 MLOAD DUP1 SWAP2 SUB SWAP1 RETURN JUMPDEST PUSH2 0x173 PUSH1 0x4 DUP1 CALLDATASIZE SUB DUP2 ADD SWAP1 PUSH2 0x16E SWAP2 SWAP1 PUSH2 0x42B JUMP JUMPDEST PUSH2 0x31A JUMP JUMPDEST STOP JUMPDEST PUSH1 0x0 PUSH1 0x3 SLOAD SWAP1 POP SWAP1 JUMP JUMPDEST DUP2 DUP2 PUSH1 0x0 DUP3 GT DUP1 ISZERO PUSH2 0x191 JUMPI POP PUSH1 0x0 DUP2 GT JUMPDEST PUSH2 0x1D0 JUMPI PUSH1 0x40 MLOAD PUSH32 0x8C379A000000000000000000000000000000000000000000000000000000000 DUP2 MSTORE PUSH1 0x4 ADD PUSH2 0x1C7 SWAP1 PUSH2 0x4C8 JUMP JUMPDEST PUSH1 0x40 MLOAD DUP1 SWAP2 SUB SWAP1 REVERT JUMPDEST DUP3 DUP5 PUSH2 0x1DC SWAP2 SWAP1 PUSH2 0x517 JUMP JUMPDEST PUSH1 0x2 DUP2 SWAP1 SSTORE POP POP POP POP POP JUMP JUMPDEST DUP2 DUP2 PUSH1 0x0 DUP3 GT DUP1 ISZERO PUSH2 0x1FA JUMPI POP PUSH1 0x0 DUP2 GT JUMPDEST PUSH2 0x239 JUMPI PUSH1 0x40 MLOAD PUSH32 0x8C379A000000000000000000000000000000000000000000000000000000000 DUP2 MSTORE PUSH1 0x4 ADD PUSH2 0x230 SWAP1 PUSH2 0x4C8 JUMP JUMPDEST PUSH1 0x40 MLOAD DUP1 SWAP2 SUB SWAP1 REVERT JUMPDEST DUP3 DUP5 LT ISZERO PUSH2 0x27C JUMPI PUSH1 0x40 MLOAD PUSH32 0x8C379A000000000000000000000000000000000000000000000000000000000 DUP2 MSTORE PUSH1 0x4 ADD PUSH2 0x273 SWAP1 PUSH2 0x5CB JUMP JUMPDEST PUSH1 0x40 MLOAD DUP1 SWAP2 SUB SWAP1 REVERT JUMPDEST DUP3 DUP5 PUSH2 0x288 SWAP2 SWAP1 PUSH2 0x5EB JUMP JUMPDEST PUSH1 0x1 DUP2 SWAP1 SSTORE POP POP POP POP POP JUMP JUMPDEST PUSH1 0x0 PUSH1 0x1 SLOAD SWAP1 POP SWAP1 JUMP JUMPDEST DUP2 DUP2 PUSH1 0x0 DUP3 GT DUP1 ISZERO PUSH2 0x2B0 JUMPI POP PUSH1 0x0 DUP2 GT JUMPDEST PUSH2 0x2EF JUMPI PUSH1 0x40 MLOAD PUSH32 0x8C379A000000000000000000000000000000000000000000000000000000000 DUP2 MSTORE PUSH1 0x4 ADD PUSH2 0x2E6 SWAP1 PUSH2 0x4C8 JUMP JUMPDEST PUSH1 0x40 MLOAD DUP1 SWAP2 SUB SWAP1 REVERT JUMPDEST DUP3 DUP5 PUSH2 0x2FB SWAP2 SWAP1 PUSH2 0x61F JUMP JUMPDEST PUSH1 0x0 DUP2 SWAP1 SSTORE POP POP POP POP POP JUMP JUMPDEST PUSH1 0x0 DUP1 SLOAD SWAP1 POP SWAP1 JUMP JUMPDEST PUSH1 0x0 PUSH1 0x2 SLOAD SWAP1 POP SWAP1 JUMP JUMPDEST DUP2 DUP2 PUSH1 0x0 DUP3 GT DUP1 ISZERO PUSH2 0x32C JUMPI POP PUSH1 0x0 DUP2 GT JUMPDEST PUSH2 0x36B JUMPI PUSH1 0x40 MLOAD PUSH32 0x8C379A000000000000000000000000000000000000000000000000000000000 DUP2 MSTORE PUSH1 0x4 ADD PUSH2 0x362 SWAP1 PUSH2 0x4C8 JUMP JUMPDEST PUSH1 0x40 MLOAD DUP1 SWAP2 SUB SWAP1 REVERT JUMPDEST PUSH1 0x0 DUP4 SUB PUSH2 0x3AE JUMPI PUSH1 0x40 MLOAD PUSH32 0x8C379A000000000000000000000000000000000000000000000000000000000 DUP2 MSTORE PUSH1 0x4 ADD PUSH2 0x3A5 SWAP1 PUSH2 0x69F JUMP JUMPDEST PUSH1 0x40 MLOAD DUP1 SWAP2 SUB SWAP1 REVERT JUMPDEST DUP3 DUP5 PUSH2 0x3BA SWAP2 SWAP1 PUSH2 0x6EE JUMP JUMPDEST PUSH1 0x3 DUP2 SWAP1 SSTORE POP POP POP POP POP JUMP JUMPDEST PUSH1 0x0 DUP2 SWAP1 POP SWAP2 SWAP1 POP JUMP JUMPDEST PUSH2 0x3D9 DUP2 PUSH2 0x3C6 JUMP JUMPDEST DUP3 MSTORE POP POP JUMP JUMPDEST PUSH1 0x0 PUSH1 0x20 DUP3 ADD SWAP1 POP PUSH2 0x3F4 PUSH1 0x0 DUP4 ADD DUP5 PUSH2 0x3D0 JUMP JUMPDEST SWAP3 SWAP2 POP POP JUMP JUMPDEST PUSH1 0x0 DUP1 REVERT JUMPDEST PUSH2 0x408 DUP2 PUSH2 0x3C6 JUMP JUMPDEST DUP2 EQ PUSH2 0x413 JUMPI PUSH1 0x0 DUP1 REVERT JUMPDEST POP JUMP JUMPDEST PUSH1 0x0 DUP2 CALLDATALOAD SWAP1 POP PUSH2 0x425 DUP2 PUSH2 0x3FF JUMP JUMPDEST SWAP3 SWAP2 POP POP JUMP JUMPDEST PUSH1 0x0 DUP1 PUSH1 0x40 DUP4 DUP6 SUB SLT ISZERO PUSH2 0x442 JUMPI PUSH2 0x441 PUSH2 0x3FA JUMP JUMPDEST JUMPDEST PUSH1 0x0 PUSH2 0x450 DUP6 DUP3 DUP7 ADD PUSH2 0x416 JUMP JUMPDEST SWAP3 POP POP PUSH1 0x20 PUSH2 0x461 DUP6 DUP3 DUP7 ADD PUSH2 0x416 JUMP JUMPDEST SWAP2 POP POP SWAP3 POP SWAP3 SWAP1 POP JUMP JUMPDEST PUSH1 0x0 DUP3 DUP3 MSTORE PUSH1 0x20 DUP3 ADD SWAP1 POP SWAP3 SWAP2 POP POP JUMP JUMPDEST PUSH32 0x4E756D62657273206D7573742062652067726561746572207468616E20300000 PUSH1 0x0 DUP3 ADD MSTORE POP JUMP JUMPDEST PUSH1 0x0 PUSH2 0x4B2 PUSH1 0x1E DUP4 PUSH2 0x46B JUMP JUMPDEST SWAP2 POP PUSH2 0x4BD DUP3 PUSH2 0x47C JUMP JUMPDEST PUSH1 0x20 DUP3 ADD SWAP1 POP SWAP2 SWAP1 POP JUMP JUMPDEST PUSH1 0x0 PUSH1 0x20 DUP3 ADD SWAP1 POP DUP2 DUP2 SUB PUSH1 0x0 DUP4 ADD MSTORE PUSH2 0x4E1 DUP2 PUSH2 0x4A5 JUMP JUMPDEST SWAP1 POP SWAP2 SWAP1 POP JUMP JUMPDEST PUSH32 0x4E487B7100000000000000000000000000000000000000000000000000000000 PUSH1 0x0 MSTORE PUSH1 0x11 PUSH1 0x4 MSTORE PUSH1 0x24 PUSH1 0x0 REVERT JUMPDEST PUSH1 0x0 PUSH2 0x522 DUP3 PUSH2 0x3C6 JUMP JUMPDEST SWAP2 POP PUSH2 0x52D DUP4 PUSH2 0x3C6 JUMP JUMPDEST SWAP3 POP DUP3 DUP3 MUL PUSH2 0x53B DUP2 PUSH2 0x3C6 JUMP JUMPDEST SWAP2 POP DUP3 DUP3 DIV DUP5 EQ DUP4 ISZERO OR PUSH2 0x552 JUMPI PUSH2 0x551 PUSH2 0x4E8 JUMP JUMPDEST JUMPDEST POP SWAP3 SWAP2 POP POP JUMP JUMPDEST PUSH32 0x4669727374206E756D626572206D757374206265206772656174657220746861 PUSH1 0x0 DUP3 ADD MSTORE PUSH32 0x6E206F7220657175616C20746F20746865207365636F6E64206F6E6500000000 PUSH1 0x20 DUP3 ADD MSTORE POP JUMP JUMPDEST PUSH1 0x0 PUSH2 0x5B5 PUSH1 0x3C DUP4 PUSH2 0x46B JUMP JUMPDEST SWAP2 POP PUSH2 0x5C0 DUP3 PUSH2 0x559 JUMP JUMPDEST PUSH1 0x40 DUP3 ADD SWAP1 POP SWAP2 SWAP1 POP JUMP JUMPDEST PUSH1 0x0 PUSH1 0x20 DUP3 ADD SWAP1 POP DUP2 DUP2 SUB PUSH1 0x0 DUP4 ADD MSTORE PUSH2 0x5E4 DUP2 PUSH2 0x5A8 JUMP JUMPDEST SWAP1 POP SWAP2 SWAP1 POP JUMP JUMPDEST PUSH1 0x0 PUSH2 0x5F6 DUP3 PUSH2 0x3C6 JUMP JUMPDEST SWAP2 POP PUSH2 0x601 DUP4 PUSH2 0x3C6 JUMP JUMPDEST SWAP3 POP DUP3 DUP3 SUB SWAP1 POP DUP2 DUP2 GT ISZERO PUSH2 0x619 JUMPI PUSH2 0x618 PUSH2 0x4E8 JUMP JUMPDEST JUMPDEST SWAP3 SWAP2 POP POP JUMP JUMPDEST PUSH1 0x0 PUSH2 0x62A DUP3 PUSH2 0x3C6 JUMP JUMPDEST SWAP2 POP PUSH2 0x635 DUP4 PUSH2 0x3C6 JUMP JUMPDEST SWAP3 POP DUP3 DUP3 ADD SWAP1 POP DUP1 DUP3 GT ISZERO PUSH2 0x64D JUMPI PUSH2 0x64C PUSH2 0x4E8 JUMP JUMPDEST JUMPDEST SWAP3 SWAP2 POP POP JUMP JUMPDEST PUSH32 0x5365636F6E64206E756D6265722063616E6E6F74206265207A65726F00000000 PUSH1 0x0 DUP3 ADD MSTORE POP JUMP JUMPDEST PUSH1 0x0 PUSH2 0x689 PUSH1 0x1C DUP4 PUSH2 0x46B JUMP JUMPDEST SWAP2 POP PUSH2 0x694 DUP3 PUSH2 0x653 JUMP JUMPDEST PUSH1 0x20 DUP3 ADD SWAP1 POP SWAP2 SWAP1 POP JUMP JUMPDEST PUSH1 0x0 PUSH1 0x20 DUP3 ADD SWAP1 POP DUP2 DUP2 SUB PUSH1 0x0 DUP4 ADD MSTORE PUSH2 0x6B8 DUP2 PUSH2 0x67C JUMP JUMPDEST SWAP1 POP SWAP2 SWAP1 POP JUMP JUMPDEST PUSH32 0x4E487B7100000000000000000000000000000000000000000000000000000000 PUSH1 0x0 MSTORE PUSH1 0x12 PUSH1 0x4 MSTORE PUSH1 0x24 PUSH1 0x0 REVERT JUMPDEST PUSH1 0x0 PUSH2 0x6F9 DUP3 PUSH2 0x3C6 JUMP JUMPDEST SWAP2 POP PUSH2 0x704 DUP4 PUSH2 0x3C6 JUMP JUMPDEST SWAP3 POP DUP3 PUSH2 0x714 JUMPI PUSH2 0x713 PUSH2 0x6BF JUMP JUMPDEST JUMPDEST DUP3 DUP3 DIV SWAP1 POP SWAP3 SWAP2 POP POP JUMP INVALID LOG2 PUSH5 0x6970667358 0x22 SLT KECCAK256 SWAP5 0xE1 CREATE2 0xD1 0xD9 0x26 SWAP13 ADD PUSH25 0x5F03919B3BDEA4774FF3989893B665EB9E286150C462576473 PUSH16 0x6C634300081200330000000000000000 "},"methodIdentifiers":{"add(uint256,uint256)":"771602f7","divide(uint256,uint256)":"f88e9fbf","getDivided()":"04c051e7","getMultiplied()":"d226a049","getSubtracted()":"42788af2","getTotal()":"775a25e3","multiply(uint256,uint256)":"165c4a16","subtract(uint256,uint256)":"3ef5e445"}}}}}