{"contracts/Counter.sol":{"Counter":{"abi":[{"inputs":[{"internalType":"uint256","name":"num1","type":"uint256"},{"internalType":"uint256","name":"num2","type":"uint256"}],"name":"add","outputs":[],"stateMutability":"nonpayable","type":"function"},{"inputs":[{"internalType":"uint256","name":"num1","type":"uint256"},{"internalType":"uint256","name":"num2","type":"uint256"}],"name":"divide","outputs":[],"stateMutability":"nonpayable","type":"function"},{"inputs":[],"name":"getDivided","outputs":[{"internalType":"uint256","name":"","type":"uint256"}],"stateMutability":"view","type":"function"},{"inputs":[],"name":"getMultiplied","outputs":[{"internalType":"uint256","name":"","type":"uint256"}],"stateMutability":"view","type":"function"},{"inputs":[],"name":"getSubtracted","outputs":[{"internalType":"uint256","name":"","type":"uint256"}],"stateMutability":"view","type":"function"},{"inputs":[],"name":"getTotal","outputs":[{"internalType":"uint256","name":"","type":"uint256"}],"stateMutability":"view","type":"function"},{"inputs":[{"internalType":"uint256","name":"num1","type":"uint256"},{"internalType":"uint256","name":"num2","type":"uint256"}],"name":"multiply","outputs":[],"stateMutability":"nonpayable","type":"function"},{"inputs":[{"internalType":"uint256","name":"num1","type":"uint256"},{"internalType":"uint256","name":"num2","type":"uint256"}],"name":"subtract","outputs":[],"stateMutability":"nonpayable","type":"function"}],"evm":{"bytecode":{"linkReferences":{},"object":"608060405234801561001057600080fd5b506103ee806100206000396000f3fe608060405234801561001057600080fd5b50600436106100885760003560e01c8063771602f71161005b578063771602f7146100d3578063775a25e3146100e6578063d226a049146100ee578063f88e9fbf146100f657600080fd5b806304c051e71461008d578063165c4a16146100a35780633ef5e445146100b857806342788af2146100cb575b600080fd5b6003545b60405190815260200160405180910390f35b6100b66100b13660046102d9565b610109565b005b6100b66100c63660046102d9565b610153565b600154610091565b6100b66100e13660046102d9565b61020a565b600054610091565b600254610091565b6100b66101043660046102d9565b61024b565b818160008211801561011b5750600081115b6101405760405162461bcd60e51b8152600401610137906102fb565b60405180910390fd5b61014a8385610348565b60025550505050565b81816000821180156101655750600081115b6101815760405162461bcd60e51b8152600401610137906102fb565b828410156101f75760405162461bcd60e51b815260206004820152603c60248201527f4669727374206e756d626572206d75737420626520677265617465722074686160448201527f6e206f7220657175616c20746f20746865207365636f6e64206f6e65000000006064820152608401610137565b6102018385610367565b60015550505050565b818160008211801561021c5750600081115b6102385760405162461bcd60e51b8152600401610137906102fb565b610242838561037e565b60005550505050565b818160008211801561025d5750600081115b6102795760405162461bcd60e51b8152600401610137906102fb565b826102c65760405162461bcd60e51b815260206004820152601c60248201527f5365636f6e64206e756d6265722063616e6e6f74206265207a65726f000000006044820152606401610137565b6102d08385610396565b60035550505050565b600080604083850312156102ec57600080fd5b50508035926020909101359150565b6020808252601e908201527f4e756d62657273206d7573742062652067726561746572207468616e20300000604082015260600190565b634e487b7160e01b600052601160045260246000fd5b600081600019048311821515161561036257610362610332565b500290565b60008282101561037957610379610332565b500390565b6000821982111561039157610391610332565b500190565b6000826103b357634e487b7160e01b600052601260045260246000fd5b50049056fea2646970667358221220803c179af71a45a0fa6726c0ec93a5eab48405fe0a5275aebc2afca9724ae66764736f6c63430008090033","opcodes":"PUSH1 0x80 PUSH1 0x40 MSTORE CALLVALUE DUP1 ISZERO PUSH2 0x10 JUMPI PUSH1 0x0 DUP1 REVERT JUMPDEST POP PUSH2 0x3EE DUP1 PUSH2 0x20 PUSH1 0x0 CODECOPY PUSH1 0x0 RETURN INVALID PUSH1 0x80 PUSH1 0x40 MSTORE CALLVALUE DUP1 ISZERO PUSH2 0x10 JUMPI PUSH1 0x0 DUP1 REVERT JUMPDEST POP PUSH1 0x4 CALLDATASIZE LT PUSH2 0x88 JUMPI PUSH1 0x0 CALLDATALOAD PUSH1 0xE0 SHR DUP1 PUSH4 0x771602F7 GT PUSH2 0x5B JUMPI DUP1 PUSH4 0x771602F7 EQ PUSH2 0xD3 JUMPI DUP1 PUSH4 0x775A25E3 EQ PUSH2 0xE6 JUMPI DUP1 PUSH4 0xD226A049 EQ PUSH2 0xEE JUMPI DUP1 PUSH4 0xF88E9FBF EQ PUSH2 0xF6 JUMPI PUSH1 0x0 DUP1 REVERT JUMPDEST DUP1 PUSH4 0x4C051E7 EQ PUSH2 0x8D JUMPI DUP1 PUSH4 0x165C4A16 EQ PUSH2 0xA3 JUMPI DUP1 PUSH4 0x3EF5E445 EQ PUSH2 0xB8 JUMPI DUP1 PUSH4 0x42788AF2 EQ PUSH2 0xCB JUMPI JUMPDEST PUSH1 0x0 DUP1 REVERT JUMPDEST PUSH1 0x3 SLOAD JUMPDEST PUSH1 0x40 MLOAD SWAP1 DUP2 MSTORE PUSH1 0x20 ADD PUSH1 0x40 MLOAD DUP1 SWAP2 SUB SWAP1 RETURN JUMPDEST PUSH2 0xB6 PUSH2 0xB1 CALLDATASIZE PUSH1 0x4 PUSH2 0x2D9 JUMP JUMPDEST PUSH2 0x109 JUMP JUMPDEST STOP JUMPDEST PUSH2 0xB6 PUSH2 0xC6 CALLDATASIZE PUSH1 0x4 PUSH2 0x2D9 JUMP JUMPDEST PUSH2 0x153 JUMP JUMPDEST PUSH1 0x1 SLOAD PUSH2 0x91 JUMP JUMPDEST PUSH2 0xB6 PUSH2 0xE1 CALLDATASIZE PUSH1 0x4 PUSH2 0x2D9 JUMP JUMPDEST PUSH2 0x20A JUMP JUMPDEST PUSH1 0x0 SLOAD PUSH2 0x91 JUMP JUMPDEST PUSH1 0x2 SLOAD PUSH2 0x91 JUMP JUMPDEST PUSH2 0xB6 PUSH2 0x104 CALLDATASIZE PUSH1 0x4 PUSH2 0x2D9 JUMP JUMPDEST PUSH2 0x24B JUMP JUMPDEST DUP2 DUP2 PUSH1 0x0 DUP3 GT DUP1 ISZERO PUSH2 0x11B JUMPI POP PUSH1 0x0 DUP2 GT JUMPDEST PUSH2 0x140 JUMPI PUSH1 0x40 MLOAD PUSH3 0x461BCD PUSH1 0xE5 SHL DUP2 MSTORE PUSH1 0x4 ADD PUSH2 0x137 SWAP1 PUSH2 0x2FB JUMP JUMPDEST PUSH1 0x40 MLOAD DUP1 SWAP2 SUB SWAP1 REVERT JUMPDEST PUSH2 0x14A DUP4 DUP6 PUSH2 0x348 JUMP JUMPDEST PUSH1 0x2 SSTORE POP POP POP POP JUMP JUMPDEST DUP2 DUP2 PUSH1 0x0 DUP3 GT DUP1 ISZERO PUSH2 0x165 JUMPI POP PUSH1 0x0 DUP2 GT JUMPDEST PUSH2 0x181 JUMPI PUSH1 0x40 MLOAD PUSH3 0x461BCD PUSH1 0xE5 SHL DUP2 MSTORE PUSH1 0x4 ADD PUSH2 0x137 SWAP1 PUSH2 0x2FB JUMP JUMPDEST DUP3 DUP5 LT ISZERO PUSH2 0x1F7 JUMPI PUSH1 0x40 MLOAD PUSH3 0x461BCD PUSH1 0xE5 SHL DUP2 MSTORE PUSH1 0x20 PUSH1 0x4 DUP3 ADD MSTORE PUSH1 0x3C PUSH1 0x24 DUP3 ADD MSTORE PUSH32 0x4669727374206E756D626572206D757374206265206772656174657220746861 PUSH1 0x44 DUP3 ADD MSTORE PUSH32 0x6E206F7220657175616C20746F20746865207365636F6E64206F6E6500000000 PUSH1 0x64 DUP3 ADD MSTORE PUSH1 0x84 ADD PUSH2 0x137 JUMP JUMPDEST PUSH2 0x201 DUP4 DUP6 PUSH2 0x367 JUMP JUMPDEST PUSH1 0x1 SSTORE POP POP POP POP JUMP JUMPDEST DUP2 DUP2 PUSH1 0x0 DUP3 GT DUP1 ISZERO PUSH2 0x21C JUMPI POP PUSH1 0x0 DUP2 GT JUMPDEST PUSH2 0x238 JUMPI PUSH1 0x40 MLOAD PUSH3 0x461BCD PUSH1 0xE5 SHL DUP2 MSTORE PUSH1 0x4 ADD PUSH2 0x137 SWAP1 PUSH2 0x2FB JUMP JUMPDEST PUSH2 0x242 DUP4 DUP6 PUSH2 0x37E JUMP JUMPDEST PUSH1 0x0 SSTORE POP POP POP POP JUMP JUMPDEST DUP2 DUP2 PUSH1 0x0 DUP3 GT DUP1 ISZERO PUSH2 0x25D JUMPI POP PUSH1 0x0 DUP2 GT JUMPDEST PUSH2 0x279 JUMPI PUSH1 0x40 MLOAD PUSH3 0x461BCD PUSH1 0xE5 SHL DUP2 MSTORE PUSH1 0x4 ADD PUSH2 0x137 SWAP1 PUSH2 0x2FB JUMP JUMPDEST DUP3 PUSH2 0x2C6 JUMPI PUSH1 0x40 MLOAD PUSH3 0x461BCD PUSH1 0xE5 SHL DUP2 MSTORE PUSH1 0x20 PUSH1 0x4 DUP3 ADD MSTORE PUSH1 0x1C PUSH1 0x24 DUP3 ADD MSTORE PUSH32 0x5365636F6E64206E756D6265722063616E6E6F74206265207A65726F00000000 PUSH1 0x44 DUP3 ADD MSTORE PUSH1 0x64 ADD PUSH2 0x137 JUMP JUMPDEST PUSH2 0x2D0 DUP4 DUP6 PUSH2 0x396 JUMP JUMPDEST PUSH1 0x3 SSTORE POP POP POP POP JUMP JUMPDEST PUSH1 0x0 DUP1 PUSH1 0x40 DUP4 DUP6 SUB SLT ISZERO PUSH2 0x2EC JUMPI PUSH1 0x0 DUP1 REVERT JUMPDEST POP POP DUP1 CALLDATALOAD SWAP3 PUSH1 0x20 SWAP1 SWAP2 ADD CALLDATALOAD SWAP2 POP JUMP JUMPDEST PUSH1 0x20 DUP1 DUP3 MSTORE PUSH1 0x1E SWAP1 DUP3 ADD MSTORE PUSH32 0x4E756D62657273206D7573742062652067726561746572207468616E20300000 PUSH1 0x40 DUP3 ADD MSTORE PUSH1 0x60 ADD SWAP1 JUMP JUMPDEST PUSH4 0x4E487B71 PUSH1 0xE0 SHL PUSH1 0x0 MSTORE PUSH1 0x11 PUSH1 0x4 MSTORE PUSH1 0x24 PUSH1 0x0 REVERT JUMPDEST PUSH1 0x0 DUP2 PUSH1 0x0 NOT DIV DUP4 GT DUP3 ISZERO ISZERO AND ISZERO PUSH2 0x362 JUMPI PUSH2 0x362 PUSH2 0x332 JUMP JUMPDEST POP MUL SWAP1 JUMP JUMPDEST PUSH1 0x0 DUP3 DUP3 LT ISZERO PUSH2 0x379 JUMPI PUSH2 0x379 PUSH2 0x332 JUMP JUMPDEST POP SUB SWAP1 JUMP JUMPDEST PUSH1 0x0 DUP3 NOT DUP3 GT ISZERO PUSH2 0x391 JUMPI PUSH2 0x391 PUSH2 0x332 JUMP JUMPDEST POP ADD SWAP1 JUMP JUMPDEST PUSH1 0x0 DUP3 PUSH2 0x3B3 JUMPI PUSH4 0x4E487B71 PUSH1 0xE0 SHL PUSH1 0x0 MSTORE PUSH1 0x12 PUSH1 0x4 MSTORE PUSH1 0x24 PUSH1 0x0 REVERT JUMPDEST POP DIV SWAP1 JUMP INVALID LOG2 PUSH5 0x6970667358 0x22 SLT KECCAK256 DUP1 EXTCODECOPY OR SWAP11 0xF7 BYTE GASLIMIT LOG0 STATICCALL PUSH8 0x26C0EC93A5EAB484 SDIV INVALID EXP MSTORE PUSH22 0xAEBC2AFCA9724AE66764736F6C634300080900330000 "},"methodIdentifiers":{"add(uint256,uint256)":"771602f7","divide(uint256,uint256)":"f88e9fbf","getDivided()":"04c051e7","getMultiplied()":"d226a049","getSubtracted()":"42788af2","getTotal()":"775a25e3","multiply(uint256,uint256)":"165c4a16","subtract(uint256,uint256)":"3ef5e445"}}}}}