{
  "_format": "hh-sol-artifact-1",
  "contractName": "Counter",
  "sourceName": "contracts/Counter.sol",
  "abi": [
    {
      "inputs": [
        {
          "internalType": "uint256",
          "name": "num1",
          "type": "uint256"
        },
        {
          "internalType": "uint256",
          "name": "num2",
          "type": "uint256"
        }
      ],
      "name": "add",
      "outputs": [],
      "stateMutability": "nonpayable",
      "type": "function"
    },
    {
      "inputs": [
        {
          "internalType": "uint256",
          "name": "num1",
          "type": "uint256"
        },
        {
          "internalType": "uint256",
          "name": "num2",
          "type": "uint256"
        }
      ],
      "name": "divide",
      "outputs": [],
      "stateMutability": "nonpayable",
      "type": "function"
    },
    {
      "inputs": [],
      "name": "getDivided",
      "outputs": [
        {
          "internalType": "uint256",
          "name": "",
          "type": "uint256"
        }
      ],
      "stateMutability": "view",
      "type": "function"
    },
    {
      "inputs": [],
      "name": "getMultiplied",
      "outputs": [
        {
          "internalType": "uint256",
          "name": "",
          "type": "uint256"
        }
      ],
      "stateMutability": "view",
      "type": "function"
    },
    {
      "inputs": [],
      "name": "getSubtracted",
      "outputs": [
        {
          "internalType": "uint256",
          "name": "",
          "type": "uint256"
        }
      ],
      "stateMutability": "view",
      "type": "function"
    },
    {
      "inputs": [],
      "name": "getTotal",
      "outputs": [
        {
          "internalType": "uint256",
          "name": "",
          "type": "uint256"
        }
      ],
      "stateMutability": "view",
      "type": "function"
    },
    {
      "inputs": [
        {
          "internalType": "uint256",
          "name": "num1",
          "type": "uint256"
        },
        {
          "internalType": "uint256",
          "name": "num2",
          "type": "uint256"
        }
      ],
      "name": "multiply",
      "outputs": [],
      "stateMutability": "nonpayable",
      "type": "function"
    },
    {
      "inputs": [
        {
          "internalType": "uint256",
          "name": "num1",
          "type": "uint256"
        },
        {
          "internalType": "uint256",
          "name": "num2",
          "type": "uint256"
        }
      ],
      "name": "subtract",
      "outputs": [],
      "stateMutability": "nonpayable",
      "type": "function"
    }
  ],
  "bytecode": "0x608060405234801561001057600080fd5b506103ee806100206000396000f3fe608060405234801561001057600080fd5b50600436106100885760003560e01c8063771602f71161005b578063771602f7146100d3578063775a25e3146100e6578063d226a049146100ee578063f88e9fbf146100f657600080fd5b806304c051e71461008d578063165c4a16146100a35780633ef5e445146100b857806342788af2146100cb575b600080fd5b6003545b60405190815260200160405180910390f35b6100b66100b13660046102d9565b610109565b005b6100b66100c63660046102d9565b610153565b600154610091565b6100b66100e13660046102d9565b61020a565b600054610091565b600254610091565b6100b66101043660046102d9565b61024b565b818160008211801561011b5750600081115b6101405760405162461bcd60e51b8152600401610137906102fb565b60405180910390fd5b61014a8385610348565b60025550505050565b81816000821180156101655750600081115b6101815760405162461bcd60e51b8152600401610137906102fb565b828410156101f75760405162461bcd60e51b815260206004820152603c60248201527f4669727374206e756d626572206d75737420626520677265617465722074686160448201527f6e206f7220657175616c20746f20746865207365636f6e64206f6e65000000006064820152608401610137565b6102018385610367565b60015550505050565b818160008211801561021c5750600081115b6102385760405162461bcd60e51b8152600401610137906102fb565b610242838561037e565b60005550505050565b818160008211801561025d5750600081115b6102795760405162461bcd60e51b8152600401610137906102fb565b826102c65760405162461bcd60e51b815260206004820152601c60248201527f5365636f6e64206e756d6265722063616e6e6f74206265207a65726f000000006044820152606401610137565b6102d08385610396565b60035550505050565b600080604083850312156102ec57600080fd5b50508035926020909101359150565b6020808252601e908201527f4e756d62657273206d7573742062652067726561746572207468616e20300000604082015260600190565b634e487b7160e01b600052601160045260246000fd5b600081600019048311821515161561036257610362610332565b500290565b60008282101561037957610379610332565b500390565b6000821982111561039157610391610332565b500190565b6000826103b357634e487b7160e01b600052601260045260246000fd5b50049056fea2646970667358221220803c179af71a45a0fa6726c0ec93a5eab48405fe0a5275aebc2afca9724ae66764736f6c63430008090033",
  "linkReferences": {},
  "deployedLinkReferences": {}
}