{
  "_format": "hh-sol-artifact-1",
  "contractName": "Counter",
  "sourceName": "contracts/Counter.sol",
  "abi": [
    {
      "inputs": [
        {
          "internalType": "uint256",
          "name": "num1",
          "type": "uint256"
        },
        {
          "internalType": "uint256",
          "name": "num2",
          "type": "uint256"
        }
      ],
      "name": "add",
      "outputs": [],
      "stateMutability": "nonpayable",
      "type": "function"
    },
    {
      "inputs": [
        {
          "internalType": "uint256",
          "name": "num1",
          "type": "uint256"
        },
        {
          "internalType": "uint256",
          "name": "num2",
          "type": "uint256"
        }
      ],
      "name": "divide",
      "outputs": [],
      "stateMutability": "nonpayable",
      "type": "function"
    },
    {
      "inputs": [],
      "name": "getDivided",
      "outputs": [
        {
          "internalType": "uint256",
          "name": "",
          "type": "uint256"
        }
      ],
      "stateMutability": "view",
      "type": "function"
    },
    {
      "inputs": [],
      "name": "getMultiplied",
      "outputs": [
        {
          "internalType": "uint256",
          "name": "",
          "type": "uint256"
        }
      ],
      "stateMutability": "view",
      "type": "function"
    },
    {
      "inputs": [],
      "name": "getSubtracted",
      "outputs": [
        {
          "internalType": "uint256",
          "name": "",
          "type": "uint256"
        }
      ],
      "stateMutability": "view",
      "type": "function"
    },
    {
      "inputs": [],
      "name": "getTotal",
      "outputs": [
        {
          "internalType": "uint256",
          "name": "",
          "type": "uint256"
        }
      ],
      "stateMutability": "view",
      "type": "function"
    },
    {
      "inputs": [
        {
          "internalType": "uint256",
          "name": "num1",
          "type": "uint256"
        },
        {
          "internalType": "uint256",
          "name": "num2",
          "type": "uint256"
        }
      ],
      "name": "multiply",
      "outputs": [],
      "stateMutability": "nonpayable",
      "type": "function"
    },
    {
      "inputs": [
        {
          "internalType": "uint256",
          "name": "num1",
          "type": "uint256"
        },
        {
          "internalType": "uint256",
          "name": "num2",
          "type": "uint256"
        }
      ],
      "name": "subtract",
      "outputs": [],
      "stateMutability": "nonpayable",
      "type": "function"
    }
  ],
  "bytecode": "0x608060405234801561001057600080fd5b50610755806100206000396000f3fe608060405234801561001057600080fd5b50600436106100885760003560e01c8063771602f71161005b578063771602f714610101578063775a25e31461011d578063d226a0491461013b578063f88e9fbf1461015957610088565b806304c051e71461008d578063165c4a16146100ab5780633ef5e445146100c757806342788af2146100e3575b600080fd5b610095610175565b6040516100a291906103df565b60405180910390f35b6100c560048036038101906100c0919061042b565b61017f565b005b6100e160048036038101906100dc919061042b565b6101e8565b005b6100eb610294565b6040516100f891906103df565b60405180910390f35b61011b6004803603810190610116919061042b565b61029e565b005b610125610307565b60405161013291906103df565b60405180910390f35b610143610310565b60405161015091906103df565b60405180910390f35b610173600480360381019061016e919061042b565b61031a565b005b6000600354905090565b81816000821180156101915750600081115b6101d0576040517f08c379a00000000000000000000000000000000000000000000000000000000081526004016101c7906104c8565b60405180910390fd5b82846101dc9190610517565b60028190555050505050565b81816000821180156101fa5750600081115b610239576040517f08c379a0000000000000000000000000000000000000000000000000000000008152600401610230906104c8565b60405180910390fd5b8284101561027c576040517f08c379a0000000000000000000000000000000000000000000000000000000008152600401610273906105cb565b60405180910390fd5b828461028891906105eb565b60018190555050505050565b6000600154905090565b81816000821180156102b05750600081115b6102ef576040517f08c379a00000000000000000000000000000000000000000000000000000000081526004016102e6906104c8565b60405180910390fd5b82846102fb919061061f565b60008190555050505050565b60008054905090565b6000600254905090565b818160008211801561032c5750600081115b61036b576040517f08c379a0000000000000000000000000000000000000000000000000000000008152600401610362906104c8565b60405180910390fd5b600083036103ae576040517f08c379a00000000000000000000000000000000000000000000000000000000081526004016103a59061069f565b60405180910390fd5b82846103ba91906106ee565b60038190555050505050565b6000819050919050565b6103d9816103c6565b82525050565b60006020820190506103f460008301846103d0565b92915050565b600080fd5b610408816103c6565b811461041357600080fd5b50565b600081359050610425816103ff565b92915050565b60008060408385031215610442576104416103fa565b5b600061045085828601610416565b925050602061046185828601610416565b9150509250929050565b600082825260208201905092915050565b7f4e756d62657273206d7573742062652067726561746572207468616e20300000600082015250565b60006104b2601e8361046b565b91506104bd8261047c565b602082019050919050565b600060208201905081810360008301526104e1816104a5565b9050919050565b7f4e487b7100000000000000000000000000000000000000000000000000000000600052601160045260246000fd5b6000610522826103c6565b915061052d836103c6565b925082820261053b816103c6565b91508282048414831517610552576105516104e8565b5b5092915050565b7f4669727374206e756d626572206d75737420626520677265617465722074686160008201527f6e206f7220657175616c20746f20746865207365636f6e64206f6e6500000000602082015250565b60006105b5603c8361046b565b91506105c082610559565b604082019050919050565b600060208201905081810360008301526105e4816105a8565b9050919050565b60006105f6826103c6565b9150610601836103c6565b9250828203905081811115610619576106186104e8565b5b92915050565b600061062a826103c6565b9150610635836103c6565b925082820190508082111561064d5761064c6104e8565b5b92915050565b7f5365636f6e64206e756d6265722063616e6e6f74206265207a65726f00000000600082015250565b6000610689601c8361046b565b915061069482610653565b602082019050919050565b600060208201905081810360008301526106b88161067c565b9050919050565b7f4e487b7100000000000000000000000000000000000000000000000000000000600052601260045260246000fd5b60006106f9826103c6565b9150610704836103c6565b925082610714576107136106bf565b5b82820490509291505056fea264697066735822122094e1f5d1d9269c01785f03919b3bdea4774ff3989893b665eb9e286150c4625764736f6c63430008120033",
  "linkReferences": {},
  "deployedLinkReferences": {}
}